{
  "_format": "hh-sol-artifact-1",
  "contractName": "GroupPayment",
  "sourceName": "contracts/GroupPayment.sol",
  "abi": [
    {
      "inputs": [
        {
          "internalType": "address payable",
          "name": "_owner",
          "type": "address"
        }
      ],
      "stateMutability": "payable",
      "type": "constructor"
    },
    {
      "anonymous": false,
      "inputs": [
        {
          "indexed": false,
          "internalType": "string",
          "name": "groupId",
          "type": "string"
        },
        {
          "indexed": false,
          "internalType": "address",
          "name": "owner",
          "type": "address"
        },
        {
          "indexed": false,
          "internalType": "uint256",
          "name": "fee",
          "type": "uint256"
        }
      ],
      "name": "GroupCreated",
      "type": "event"
    },
    {
      "anonymous": false,
      "inputs": [
        {
          "indexed": false,
          "internalType": "string",
          "name": "groupId",
          "type": "string"
        },
        {
          "indexed": false,
          "internalType": "address",
          "name": "member",
          "type": "address"
        },
        {
          "indexed": false,
          "internalType": "uint256",
          "name": "amount",
          "type": "uint256"
        }
      ],
      "name": "PaymentMade",
      "type": "event"
    },
    {
      "anonymous": false,
      "inputs": [
        {
          "indexed": false,
          "internalType": "uint256",
          "name": "amount",
          "type": "uint256"
        }
      ],
      "name": "PlatformWithdrawal",
      "type": "event"
    },
    {
      "anonymous": false,
      "inputs": [
        {
          "indexed": false,
          "internalType": "string",
          "name": "groupId",
          "type": "string"
        },
        {
          "indexed": false,
          "internalType": "uint256",
          "name": "amount",
          "type": "uint256"
        }
      ],
      "name": "Withdrawal",
      "type": "event"
    },
    {
      "anonymous": false,
      "inputs": [
        {
          "indexed": false,
          "internalType": "uint256",
          "name": "amount",
          "type": "uint256"
        },
        {
          "indexed": false,
          "internalType": "address",
          "name": "broker",
          "type": "address"
        }
      ],
      "name": "collectedWithdrawal",
      "type": "event"
    },
    {
      "inputs": [
        {
          "internalType": "uint16",
          "name": "_platformFeePercent",
          "type": "uint16"
        },
        {
          "internalType": "uint16",
          "name": "_groupFeePercent",
          "type": "uint16"
        }
      ],
      "name": "changeFee",
      "outputs": [],
      "stateMutability": "nonpayable",
      "type": "function"
    },
    {
      "inputs": [
        {
          "internalType": "string",
          "name": "groupId",
          "type": "string"
        },
        {
          "internalType": "string",
          "name": "userId",
          "type": "string"
        }
      ],
      "name": "checkGroupMembers",
      "outputs": [
        {
          "components": [
            {
              "internalType": "string",
              "name": "groupId",
              "type": "string"
            },
            {
              "internalType": "address",
              "name": "member",
              "type": "address"
            },
            {
              "internalType": "string",
              "name": "brokerId",
              "type": "string"
            },
            {
              "internalType": "string",
              "name": "userId",
              "type": "string"
            }
          ],
          "internalType": "struct GroupPayment.Member[]",
          "name": "",
          "type": "tuple[]"
        }
      ],
      "stateMutability": "view",
      "type": "function"
    },
    {
      "inputs": [
        {
          "internalType": "string",
          "name": "groupId",
          "type": "string"
        },
        {
          "internalType": "string",
          "name": "brokerId",
          "type": "string"
        },
        {
          "internalType": "uint256",
          "name": "fee",
          "type": "uint256"
        }
      ],
      "name": "createGroup",
      "outputs": [],
      "stateMutability": "nonpayable",
      "type": "function"
    },
    {
      "inputs": [
        {
          "internalType": "string",
          "name": "groupId",
          "type": "string"
        }
      ],
      "name": "getCollectedFeeByGroup",
      "outputs": [
        {
          "internalType": "uint256",
          "name": "",
          "type": "uint256"
        }
      ],
      "stateMutability": "view",
      "type": "function"
    },
    {
      "inputs": [],
      "name": "groupFeePercent",
      "outputs": [
        {
          "internalType": "uint256",
          "name": "",
          "type": "uint256"
        }
      ],
      "stateMutability": "view",
      "type": "function"
    },
    {
      "inputs": [
        {
          "internalType": "string",
          "name": "",
          "type": "string"
        }
      ],
      "name": "groups",
      "outputs": [
        {
          "internalType": "address",
          "name": "owner",
          "type": "address"
        },
        {
          "internalType": "uint256",
          "name": "fee",
          "type": "uint256"
        },
        {
          "internalType": "uint256",
          "name": "collectedFees",
          "type": "uint256"
        },
        {
          "internalType": "uint256",
          "name": "platformFee",
          "type": "uint256"
        },
        {
          "internalType": "string",
          "name": "brokerId",
          "type": "string"
        },
        {
          "internalType": "string",
          "name": "groupId",
          "type": "string"
        }
      ],
      "stateMutability": "view",
      "type": "function"
    },
    {
      "inputs": [
        {
          "internalType": "string",
          "name": "groupId",
          "type": "string"
        },
        {
          "internalType": "string",
          "name": "userId",
          "type": "string"
        }
      ],
      "name": "joinGroup",
      "outputs": [],
      "stateMutability": "payable",
      "type": "function"
    },
    {
      "inputs": [],
      "name": "platformFeePercent",
      "outputs": [
        {
          "internalType": "uint256",
          "name": "",
          "type": "uint256"
        }
      ],
      "stateMutability": "view",
      "type": "function"
    },
    {
      "inputs": [],
      "name": "platformOwner",
      "outputs": [
        {
          "internalType": "address",
          "name": "",
          "type": "address"
        }
      ],
      "stateMutability": "view",
      "type": "function"
    },
    {
      "inputs": [
        {
          "internalType": "string",
          "name": "groupId",
          "type": "string"
        }
      ],
      "name": "withdraw",
      "outputs": [],
      "stateMutability": "nonpayable",
      "type": "function"
    },
    {
      "inputs": [],
      "name": "withdrawAllByBroker",
      "outputs": [],
      "stateMutability": "payable",
      "type": "function"
    },
    {
      "inputs": [],
      "name": "withdrawAllPlatformFees",
      "outputs": [],
      "stateMutability": "payable",
      "type": "function"
    }
  ],
  "bytecode": "0x60806040526005600255605f600355604051611b56380380611b5683398101604081905261002c91610056565b6001600081905580546001600160a01b0319166001600160a01b0392909216919091179055610086565b60006020828403121561006857600080fd5b81516001600160a01b038116811461007f57600080fd5b9392505050565b611ac1806100956000396000f3fe6080604052600436106100a75760003560e01c80638c639a85116100645780638c639a85146101b2578063b8bc7b0e146101c8578063bea28c65146101d0578063ce58f9ed146101f0578063db9feed4146101f8578063dea0b8851461020b57600080fd5b80631dc2d822146100ac57806331fb67c2146100e25780634df8ccb1146101045780635cd632c91461013c5780636b52230b14610160578063802777f414610192575b600080fd5b3480156100b857600080fd5b506100cc6100c7366004611436565b61022b565b6040516100d991906114ea565b60405180910390f35b3480156100ee57600080fd5b506101026100fd3660046115a3565b610493565b005b34801561011057600080fd5b50600154610124906001600160a01b031681565b6040516001600160a01b0390911681526020016100d9565b34801561014857600080fd5b5061015260035481565b6040519081526020016100d9565b34801561016c57600080fd5b5061018061017b3660046115a3565b6105eb565b6040516100d9969594939291906115e0565b34801561019e57600080fd5b506101026101ad366004611632565b61074c565b3480156101be57600080fd5b5061015260025481565b610102610a80565b3480156101dc57600080fd5b506101026101eb3660046116b6565b610c88565b610102610d35565b610102610206366004611436565b610ef0565b34801561021757600080fd5b506101526102263660046115a3565b611368565b606060068360405161023d91906116e9565b90815260200160405180910390208260405161025991906116e9565b9081526020016040518091039020805480602002602001604051908101604052809291908181526020016000905b8282101561048657838290600052602060002090600402016040518060800160405290816000820180546102ba90611705565b80601f01602080910402602001604051908101604052809291908181526020018280546102e690611705565b80156103335780601f1061030857610100808354040283529160200191610333565b820191906000526020600020905b81548152906001019060200180831161031657829003601f168201915b505050918352505060018201546001600160a01b0316602082015260028201805460409092019161036390611705565b80601f016020809104026020016040519081016040528092919081815260200182805461038f90611705565b80156103dc5780601f106103b1576101008083540402835291602001916103dc565b820191906000526020600020905b8154815290600101906020018083116103bf57829003601f168201915b505050505081526020016003820180546103f590611705565b80601f016020809104026020016040519081016040528092919081815260200182805461042190611705565b801561046e5780601f106104435761010080835404028352916020019161046e565b820191906000526020600020905b81548152906001019060200180831161045157829003601f168201915b50505050508152505081526020019060010190610287565b5050505090505b92915050565b80336001600160a01b03166004826040516104ae91906116e9565b908152604051908190036020019020546001600160a01b0316146105195760405162461bcd60e51b815260206004820152601b60248201527f596f7520617265206e6f74207468652067726f7570206f776e6572000000000060448201526064015b60405180910390fd5b600060048360405161052b91906116e9565b9081526040519081900360200190209050805460028201546001600160a01b03909116906108fc906105669067016345785d8a000090611755565b6040518115909202916000818181858888f1935050505015801561058e573d6000803e3d6000fd5b507ff07ea1655c760ae162059b42f0efb1c9b59227958d0bfa0743d28f00b62706298367016345785d8a000083600201546105c99190611755565b6040516105d7929190611777565b60405180910390a160006002909101555050565b805160208183018101805160048083529383019290940191909120929052815460018301546002840154600385015493850180546001600160a01b03909416959294919391929161063b90611705565b80601f016020809104026020016040519081016040528092919081815260200182805461066790611705565b80156106b45780601f10610689576101008083540402835291602001916106b4565b820191906000526020600020905b81548152906001019060200180831161069757829003601f168201915b5050505050908060050180546106c990611705565b80601f01602080910402602001604051908101604052809291908181526020018280546106f590611705565b80156107425780601f1061071757610100808354040283529160200191610742565b820191906000526020600020905b81548152906001019060200180831161072557829003601f168201915b5050505050905086565b60006001600160a01b031660048460405161076791906116e9565b908152604051908190036020019020546001600160a01b0316146107c45760405162461bcd60e51b815260206004820152601460248201527347726f757020616c72656164792065786973747360601b6044820152606401610510565b6040518060c00160405280336001600160a01b0316815260200182815260200160008152602001600081526020018381526020018481525060048460405161080c91906116e9565b9081526040805160209281900383019020835181546001600160a01b0319166001600160a01b039091161781559183015160018301558201516002820155606082015160038201556080820151600482019061086890826117ea565b5060a0820151600582019061087d90826117ea565b5050600780546001810182556000919091527fa66cc928b5edb82af9bd49922954155ab7b0942694bea4ce44661d9a8736c6880190506108bd84826117ea565b50336000908152600560205260409081902090516004906108df9086906116e9565b908152604051908190036020908101909120825460018181018555600094855292909320815460069094020180546001600160a01b0319166001600160a01b03909416939093178355818101549183019190915560028082015490830155600380820154908301559060048082019061095a908401826118aa565b5060058181019061096d908401826118aa565b50505060068360405161098091906116e9565b90815260200160405180910390208260405161099c91906116e9565b90815260408051918290036020908101832060808401835286845233848301529183018590526060830185905281546001810183556000928352912082516004909202019081906109ed90826117ea565b5060208201516001820180546001600160a01b0319166001600160a01b0390921691909117905560408201516002820190610a2890826117ea565b5060608201516003820190610a3d90826117ea565b5050507f0497d830a0b4b20fc3a61f595ca1ecbc7417424aebe0f725d20e0e48af509cb5833383604051610a7393929190611985565b60405180910390a1505050565b6001546001600160a01b03163314610ad35760405162461bcd60e51b8152602060048201526016602482015275594f5520415245204e4f5420544845204f574e45522160501b6044820152606401610510565b6000805b600754811015610b44576000600460078381548110610af857610af86119b3565b90600052602060002001604051610b0f91906119c9565b90815260200160405180910390209050806003015483610b2f9190611a3f565b60006003909201919091559150600101610ad7565b5060008111610b955760405162461bcd60e51b815260206004820152601a60248201527f4e6f20706c6174666f726d206665657320617661696c61626c650000000000006044820152606401610510565b80610ba84767016345785d8a0000611a52565b1015610bf65760405162461bcd60e51b815260206004820152601d60248201527f496e73756666696369656e7420636f6e74726163742062616c616e63650000006044820152606401610510565b6001546001600160a01b03166108fc610c1767016345785d8a000084611755565b6040518115909202916000818181858888f19350505050158015610c3f573d6000803e3d6000fd5b507f7f1ec5228627bbf664e33b540d1ace23fe5a1dce9e2741ca342e1267416cd8b9610c7367016345785d8a000083611755565b6040519081526020015b60405180910390a150565b6001546001600160a01b03163314610cdb5760405162461bcd60e51b8152602060048201526016602482015275594f5520415245204e4f5420544845204f574e45522160501b6044820152606401610510565b610ce58183611a69565b61ffff16606414610d265760405162461bcd60e51b815260206004820152600b60248201526a496e76616c69642066656560a81b6044820152606401610510565b61ffff91821660025516600355565b6000805b600754811015610db9576000600460078381548110610d5a57610d5a6119b3565b90600052602060002001604051610d7191906119c9565b9081526040519081900360200190208054909150336001600160a01b039190911603610db0576002810154610da69084611a3f565b6000600283015592505b50600101610d39565b5060008111610e0a5760405162461bcd60e51b815260206004820152601b60248201527f4e6f20636f6c6c6563746564206665657320617661696c61626c6500000000006044820152606401610510565b80610e1d4767016345785d8a0000611a52565b1015610e6b5760405162461bcd60e51b815260206004820152601d60248201527f496e73756666696369656e7420636f6e74726163742062616c616e63650000006044820152606401610510565b336108fc610e8167016345785d8a000084611755565b6040518115909202916000818181858888f19350505050158015610ea9573d6000803e3d6000fd5b507fbbb60f138eb4ed319fb0ac499fc889e93142ef95f77db77606660299c104abd9610edd67016345785d8a000083611755565b6040805191825233602083015201610c7d565b6000600483604051610f0291906116e9565b90815260405190819003602001902080549091506001600160a01b0316610f625760405162461bcd60e51b815260206004820152601460248201527311dc9bdd5c08191bd95cc81b9bdd08195e1a5cdd60621b6044820152606401610510565b6000816001015411610fad5760405162461bcd60e51b815260206004820152601460248201527311dc9bdd5c08199959481a5cc81b9bdd081cd95d60621b6044820152606401610510565b6000341161100b5760405162461bcd60e51b815260206004820152602560248201527f5061796d656e7420616d6f756e74206d75737420626520677265617465722074604482015264068616e20360dc1b6064820152608401610510565b806001015434101561105f5760405162461bcd60e51b815260206004820152601860248201527f496e636f7272656374207061796d656e7420616d6f756e7400000000000000006044820152606401610510565b6001810154333110156110ab5760405162461bcd60e51b8152602060048201526014602482015273496e73756666696369656e742062616c616e636560601b6044820152606401610510565b6006836040516110bb91906116e9565b9081526020016040518091039020826040516110d791906116e9565b908152604051908190036020019020541561113f5760405162461bcd60e51b815260206004820152602260248201527f596f75206861766520616c7265616479206a6f696e656420746869732067726f604482015261075760f41b6064820152608401610510565b6002546064906111573467016345785d8a0000611a52565b6111619190611a52565b61116b9190611755565b81600301600082825461117e9190611a3f565b909155505060035460649061119b3467016345785d8a0000611a52565b6111a59190611a52565b6111af9190611755565b8160020160008282546111c29190611a3f565b90915550506040516006906111d89085906116e9565b9081526020016040518091039020826040516111f491906116e9565b90815260200160405180910390206040518060800160405280858152602001336001600160a01b0316815260200183600401805461123190611705565b80601f016020809104026020016040519081016040528092919081815260200182805461125d90611705565b80156112aa5780601f1061127f576101008083540402835291602001916112aa565b820191906000526020600020905b81548152906001019060200180831161128d57829003601f168201915b5050509183525050602090810185905282546001810184556000938452922081519192600402019081906112de90826117ea565b5060208201516001820180546001600160a01b0319166001600160a01b039092169190911790556040820151600282019061131990826117ea565b506060820151600382019061132e90826117ea565b5050507fa4063949d46df8966b0b0da701810cd0898aa91bbd685924f99e15a878b5b9c783338360010154604051610a7393929190611985565b600060048260405161137a91906116e9565b9081526020016040518091039020600201549050919050565b634e487b7160e01b600052604160045260246000fd5b600082601f8301126113ba57600080fd5b813567ffffffffffffffff808211156113d5576113d5611393565b604051601f8301601f19908116603f011681019082821181831017156113fd576113fd611393565b8160405283815286602085880101111561141657600080fd5b836020870160208301376000602085830101528094505050505092915050565b6000806040838503121561144957600080fd5b823567ffffffffffffffff8082111561146157600080fd5b61146d868387016113a9565b9350602085013591508082111561148357600080fd5b50611490858286016113a9565b9150509250929050565b60005b838110156114b557818101518382015260200161149d565b50506000910152565b600081518084526114d681602086016020860161149a565b601f01601f19169290920160200192915050565b600060208083018184528085518083526040925060408601915060408160051b87010184880160005b8381101561159557603f19898403018552815160808151818652611539828701826114be565b838b01516001600160a01b0316878c0152898401518782038b890152909250905061156482826114be565b9150506060808301519250858203818701525061158181836114be565b968901969450505090860190600101611513565b509098975050505050505050565b6000602082840312156115b557600080fd5b813567ffffffffffffffff8111156115cc57600080fd5b6115d8848285016113a9565b949350505050565b60018060a01b038716815285602082015284604082015283606082015260c06080820152600061161360c08301856114be565b82810360a084015261162581856114be565b9998505050505050505050565b60008060006060848603121561164757600080fd5b833567ffffffffffffffff8082111561165f57600080fd5b61166b878388016113a9565b9450602086013591508082111561168157600080fd5b5061168e868287016113a9565b925050604084013590509250925092565b803561ffff811681146116b157600080fd5b919050565b600080604083850312156116c957600080fd5b6116d28361169f565b91506116e06020840161169f565b90509250929050565b600082516116fb81846020870161149a565b9190910192915050565b600181811c9082168061171957607f821691505b60208210810361173957634e487b7160e01b600052602260045260246000fd5b50919050565b634e487b7160e01b600052601160045260246000fd5b60008261177257634e487b7160e01b600052601260045260246000fd5b500490565b60408152600061178a60408301856114be565b90508260208301529392505050565b601f8211156117e5576000816000526020600020601f850160051c810160208610156117c25750805b601f850160051c820191505b818110156117e1578281556001016117ce565b5050505b505050565b815167ffffffffffffffff81111561180457611804611393565b611818816118128454611705565b84611799565b602080601f83116001811461184d57600084156118355750858301515b600019600386901b1c1916600185901b1785556117e1565b600085815260208120601f198616915b8281101561187c5788860151825594840194600190910190840161185d565b508582101561189a5787850151600019600388901b60f8161c191681555b5050505050600190811b01905550565b8181036118b5575050565b6118bf8254611705565b67ffffffffffffffff8111156118d7576118d7611393565b6118e5816118128454611705565b6000601f82116001811461191957600083156119015750848201545b600019600385901b1c1916600184901b17845561197e565b600085815260209020601f19841690600086815260209020845b838110156119535782860154825560019586019590910190602001611933565b50858310156119715781850154600019600388901b60f8161c191681555b50505060018360011b0184555b5050505050565b60608152600061199860608301866114be565b6001600160a01b039490941660208301525060400152919050565b634e487b7160e01b600052603260045260246000fd5b60008083546119d781611705565b600182811680156119ef5760018114611a0457611a33565b60ff1984168752821515830287019450611a33565b8760005260208060002060005b85811015611a2a5781548a820152908401908201611a11565b50505082870194505b50929695505050505050565b8082018082111561048d5761048d61173f565b808202811582820484141761048d5761048d61173f565b61ffff818116838216019080821115611a8457611a8461173f565b509291505056fea2646970667358221220f03c4a82a15615adc97064f5127b9e43469cb9a32bce9b8ef3cf7b51d10b05a864736f6c63430008180033",
  "linkReferences": {},
  "deployedLinkReferences": {}
}