{
  "_format": "hh-sol-artifact-1",
  "contractName": "Rate",
  "sourceName": "contracts/Rate.sol",
  "abi": [
    {
      "inputs": [
        {
          "internalType": "address payable",
          "name": "_owner",
          "type": "address"
        }
      ],
      "stateMutability": "payable",
      "type": "constructor"
    },
    {
      "anonymous": false,
      "inputs": [
        {
          "components": [
            {
              "internalType": "address",
              "name": "author",
              "type": "address"
            },
            {
              "internalType": "string",
              "name": "content",
              "type": "string"
            },
            {
              "internalType": "uint256",
              "name": "timestamp",
              "type": "uint256"
            },
            {
              "internalType": "string",
              "name": "brokerId",
              "type": "string"
            },
            {
              "internalType": "string",
              "name": "username",
              "type": "string"
            },
            {
              "internalType": "uint8",
              "name": "rateScore",
              "type": "uint8"
            }
          ],
          "indexed": false,
          "internalType": "struct Rate.Rating",
          "name": "",
          "type": "tuple"
        }
      ],
      "name": "RatingCreated",
      "type": "event"
    },
    {
      "inputs": [],
      "name": "MAX_LENGTH",
      "outputs": [
        {
          "internalType": "uint256",
          "name": "",
          "type": "uint256"
        }
      ],
      "stateMutability": "view",
      "type": "function"
    },
    {
      "inputs": [
        {
          "internalType": "string",
          "name": "_content",
          "type": "string"
        },
        {
          "internalType": "string",
          "name": "_brokerId",
          "type": "string"
        },
        {
          "internalType": "string",
          "name": "username",
          "type": "string"
        },
        {
          "internalType": "uint8",
          "name": "_rateScore",
          "type": "uint8"
        }
      ],
      "name": "createRating",
      "outputs": [],
      "stateMutability": "payable",
      "type": "function"
    },
    {
      "inputs": [
        {
          "internalType": "string",
          "name": "_brokerId",
          "type": "string"
        },
        {
          "internalType": "uint256",
          "name": "_limit",
          "type": "uint256"
        },
        {
          "internalType": "uint256",
          "name": "_offset",
          "type": "uint256"
        }
      ],
      "name": "getAllRatingsByBroker",
      "outputs": [
        {
          "components": [
            {
              "internalType": "address",
              "name": "author",
              "type": "address"
            },
            {
              "internalType": "string",
              "name": "content",
              "type": "string"
            },
            {
              "internalType": "uint256",
              "name": "timestamp",
              "type": "uint256"
            },
            {
              "internalType": "string",
              "name": "brokerId",
              "type": "string"
            },
            {
              "internalType": "string",
              "name": "username",
              "type": "string"
            },
            {
              "internalType": "uint8",
              "name": "rateScore",
              "type": "uint8"
            }
          ],
          "internalType": "struct Rate.Rating[]",
          "name": "",
          "type": "tuple[]"
        }
      ],
      "stateMutability": "view",
      "type": "function"
    },
    {
      "inputs": [
        {
          "internalType": "address",
          "name": "_owner",
          "type": "address"
        }
      ],
      "name": "getAllRatingsByOwner",
      "outputs": [
        {
          "components": [
            {
              "internalType": "address",
              "name": "author",
              "type": "address"
            },
            {
              "internalType": "string",
              "name": "content",
              "type": "string"
            },
            {
              "internalType": "uint256",
              "name": "timestamp",
              "type": "uint256"
            },
            {
              "internalType": "string",
              "name": "brokerId",
              "type": "string"
            },
            {
              "internalType": "string",
              "name": "username",
              "type": "string"
            },
            {
              "internalType": "uint8",
              "name": "rateScore",
              "type": "uint8"
            }
          ],
          "internalType": "struct Rate.Rating[]",
          "name": "",
          "type": "tuple[]"
        }
      ],
      "stateMutability": "view",
      "type": "function"
    },
    {
      "inputs": [
        {
          "internalType": "string",
          "name": "_brokerId",
          "type": "string"
        }
      ],
      "name": "getAverageRating",
      "outputs": [
        {
          "components": [
            {
              "internalType": "uint256",
              "name": "brokerRatingCount",
              "type": "uint256"
            },
            {
              "internalType": "uint256",
              "name": "brokerTotalScore",
              "type": "uint256"
            }
          ],
          "internalType": "struct Rate.brokerRating",
          "name": "",
          "type": "tuple"
        }
      ],
      "stateMutability": "view",
      "type": "function"
    },
    {
      "inputs": [
        {
          "internalType": "uint256",
          "name": "_i",
          "type": "uint256"
        }
      ],
      "name": "getRating",
      "outputs": [
        {
          "components": [
            {
              "internalType": "address",
              "name": "author",
              "type": "address"
            },
            {
              "internalType": "string",
              "name": "content",
              "type": "string"
            },
            {
              "internalType": "uint256",
              "name": "timestamp",
              "type": "uint256"
            },
            {
              "internalType": "string",
              "name": "brokerId",
              "type": "string"
            },
            {
              "internalType": "string",
              "name": "username",
              "type": "string"
            },
            {
              "internalType": "uint8",
              "name": "rateScore",
              "type": "uint8"
            }
          ],
          "internalType": "struct Rate.Rating",
          "name": "",
          "type": "tuple"
        }
      ],
      "stateMutability": "view",
      "type": "function"
    },
    {
      "inputs": [
        {
          "internalType": "uint16",
          "name": "newLength",
          "type": "uint16"
        }
      ],
      "name": "initiateContentLengthChange",
      "outputs": [],
      "stateMutability": "nonpayable",
      "type": "function"
    },
    {
      "inputs": [],
      "name": "owner",
      "outputs": [
        {
          "internalType": "address",
          "name": "",
          "type": "address"
        }
      ],
      "stateMutability": "view",
      "type": "function"
    }
  ],
  "bytecode": "0x60806040526101186000556040516115653803806115658339810160408190526100289161004d565b600780546001600160a01b0319166001600160a01b039290921691909117905561007d565b60006020828403121561005f57600080fd5b81516001600160a01b038116811461007657600080fd5b9392505050565b6114d98061008c6000396000f3fe60806040526004361061007b5760003560e01c80638da5cb5b1161004e5780638da5cb5b1461010b578063998863fd14610143578063a6f9885c1461017e578063b0ee0e9f146101a257600080fd5b80633552e3b8146100805780634079b17c146100955780634708e6c1146100b557806353fbd582146100eb575b600080fd5b61009361008e366004610feb565b6101cf565b005b3480156100a157600080fd5b506100936100b036600461108c565b610614565b3480156100c157600080fd5b506100d56100d03660046110b0565b610670565b6040516100e291906111a7565b60405180910390f35b3480156100f757600080fd5b506100d561010636600461120b565b6108cb565b34801561011757600080fd5b5060075461012b906001600160a01b031681565b6040516001600160a01b0390911681526020016100e2565b34801561014f57600080fd5b5061016361015e366004611259565b610bee565b604080518251815260209283015192810192909252016100e2565b34801561018a57600080fd5b5061019460005481565b6040519081526020016100e2565b3480156101ae57600080fd5b506101c26101bd366004611296565b610cb7565b6040516100e291906112af565b600054845111156102275760405162461bcd60e51b815260206004820152601860248201527f436f6e74656e7420697320746f6f206c6f6e672062726f21000000000000000060448201526064015b60405180910390fd5b60058160ff1611156102745760405162461bcd60e51b8152602060048201526016602482015275526174652073636f726520697320696e76616c69642160501b604482015260640161021e565b3360009081526004602052604080822090516102919086906112c2565b908152604051908190036020019020546001600160a01b0316146103035760405162461bcd60e51b815260206004820152602360248201527f596f75206861766520616c726561647920726174656420746869732062726f6b60448201526265722160e81b606482015260840161021e565b6040805160c0810182523380825260208083018890524283850152606083018790526080830186905260ff851660a08401526000918252600490528290209151909182916103529087906112c2565b90815260405160209181900382019020825181546001600160a01b0319166001600160a01b039091161781559082015160018201906103919082611369565b5060408201516002820155606082015160038201906103b09082611369565b50608082015160048201906103c59082611369565b5060a091909101516005909101805460ff191660ff909216919091179055336000908152600260209081526040822080546001818101835591845292829020845160069094020180546001600160a01b0319166001600160a01b039094169390931783559083015183929182019061043d9082611369565b50604082015160028201556060820151600382019061045c9082611369565b50608082015160048201906104719082611369565b5060a091909101516005909101805460ff191660ff90921691909117905560608101516040516003916104a3916112c2565b90815260405160209181900382019020805460018082018355600092835291839020845160069092020180546001600160a01b0319166001600160a01b03909216919091178155918301518392918201906104fe9082611369565b50604082015160028201556060820151600382019061051d9082611369565b50608082015160048201906105329082611369565b5060a091909101516005918201805460ff191660ff90921691909117905560405161057b916001916105659088906112c2565b9081526040519081900360200190205490610ee5565b60058560405161058b91906112c2565b9081526020016040518091039020819055506105b48260ff1660068660405161056591906112c2565b6006856040516105c491906112c2565b9081526020016040518091039020819055507fd2f22a0b6520c079d45d31cbdee47c87656075fff7cd34df5c03b7ff55c3bcf68160405161060591906112af565b60405180910390a15050505050565b6007546001600160a01b031633146106675760405162461bcd60e51b8152602060048201526016602482015275594f5520415245204e4f5420544845204f574e45522160501b604482015260640161021e565b61ffff16600055565b6001600160a01b0381166000908152600260209081526040808320805482518185028101850190935280835260609492939192909184015b828210156108c05760008481526020908190206040805160c081019091526006850290910180546001600160a01b0316825260018101805492939192918401916106f1906112de565b80601f016020809104026020016040519081016040528092919081815260200182805461071d906112de565b801561076a5780601f1061073f5761010080835404028352916020019161076a565b820191906000526020600020905b81548152906001019060200180831161074d57829003601f168201915b505050505081526020016002820154815260200160038201805461078d906112de565b80601f01602080910402602001604051908101604052809291908181526020018280546107b9906112de565b80156108065780601f106107db57610100808354040283529160200191610806565b820191906000526020600020905b8154815290600101906020018083116107e957829003601f168201915b5050505050815260200160048201805461081f906112de565b80601f016020809104026020016040519081016040528092919081815260200182805461084b906112de565b80156108985780601f1061086d57610100808354040283529160200191610898565b820191906000526020600020905b81548152906001019060200180831161087b57829003601f168201915b50505091835250506005919091015460ff1660209182015290825260019290920191016106a8565b505050509050919050565b60606000806003866040516108e091906112c2565b90815260405190819003602001902054851061091b5760038660405161090691906112c2565b9081526040519081900360200190205461091d565b845b905060008167ffffffffffffffff81111561093a5761093a610f48565b60405190808252806020026020018201604052801561097357816020015b610960610f06565b8152602001906001900390816109585790505b509050845b82811015610be35760038860405161099091906112c2565b908152602001604051809103902081815481106109af576109af611429565b60009182526020918290206040805160c0810190915260069092020180546001600160a01b0316825260018101805492939192918401916109ef906112de565b80601f0160208091040260200160405190810160405280929190818152602001828054610a1b906112de565b8015610a685780601f10610a3d57610100808354040283529160200191610a68565b820191906000526020600020905b815481529060010190602001808311610a4b57829003601f168201915b5050505050815260200160028201548152602001600382018054610a8b906112de565b80601f0160208091040260200160405190810160405280929190818152602001828054610ab7906112de565b8015610b045780601f10610ad957610100808354040283529160200191610b04565b820191906000526020600020905b815481529060010190602001808311610ae757829003601f168201915b50505050508152602001600482018054610b1d906112de565b80601f0160208091040260200160405190810160405280929190818152602001828054610b49906112de565b8015610b965780601f10610b6b57610100808354040283529160200191610b96565b820191906000526020600020905b815481529060010190602001808311610b7957829003601f168201915b50505091835250506005919091015460ff166020909101528251839086908110610bc257610bc2611429565b60200260200101819052508380610bd890611455565b945050600101610978565b509695505050505050565b60408051808201909152600080825260208201526000600583604051610c1491906112c2565b9081526020016040518091039020549050610c42604051806040016040528060008152602001600081525090565b81600003610c51579392505050565b818152604051600690610c659086906112c2565b9081526040516020918190038201902054908201528115610cb057610caa82600686604051610c9491906112c2565b9081526040519081900360200190205490610efa565b60208201525b9392505050565b610cbf610f06565b336000908152600260205260409020805483908110610ce057610ce0611429565b60009182526020918290206040805160c0810190915260069092020180546001600160a01b031682526001810180549293919291840191610d20906112de565b80601f0160208091040260200160405190810160405280929190818152602001828054610d4c906112de565b8015610d995780601f10610d6e57610100808354040283529160200191610d99565b820191906000526020600020905b815481529060010190602001808311610d7c57829003601f168201915b5050505050815260200160028201548152602001600382018054610dbc906112de565b80601f0160208091040260200160405190810160405280929190818152602001828054610de8906112de565b8015610e355780601f10610e0a57610100808354040283529160200191610e35565b820191906000526020600020905b815481529060010190602001808311610e1857829003601f168201915b50505050508152602001600482018054610e4e906112de565b80601f0160208091040260200160405190810160405280929190818152602001828054610e7a906112de565b8015610ec75780601f10610e9c57610100808354040283529160200191610ec7565b820191906000526020600020905b815481529060010190602001808311610eaa57829003601f168201915b50505091835250506005919091015460ff1660209091015292915050565b6000610ef1828461146e565b90505b92915050565b6000610ef18284611481565b6040518060c0016040528060006001600160a01b0316815260200160608152602001600081526020016060815260200160608152602001600060ff1681525090565b634e487b7160e01b600052604160045260246000fd5b600082601f830112610f6f57600080fd5b813567ffffffffffffffff80821115610f8a57610f8a610f48565b604051601f8301601f19908116603f01168101908282118183101715610fb257610fb2610f48565b81604052838152866020858801011115610fcb57600080fd5b836020870160208301376000602085830101528094505050505092915050565b6000806000806080858703121561100157600080fd5b843567ffffffffffffffff8082111561101957600080fd5b61102588838901610f5e565b9550602087013591508082111561103b57600080fd5b61104788838901610f5e565b9450604087013591508082111561105d57600080fd5b5061106a87828801610f5e565b925050606085013560ff8116811461108157600080fd5b939692955090935050565b60006020828403121561109e57600080fd5b813561ffff81168114610cb057600080fd5b6000602082840312156110c257600080fd5b81356001600160a01b0381168114610cb057600080fd5b60005b838110156110f45781810151838201526020016110dc565b50506000910152565b600081518084526111158160208601602086016110d9565b601f01601f19169290920160200192915050565b60018060a01b0381511682526000602082015160c0602085015261115060c08501826110fd565b9050604083015160408501526060830151848203606086015261117382826110fd565b9150506080830151848203608086015261118d82826110fd565b91505060ff60a08401511660a08501528091505092915050565b600060208083016020845280855180835260408601915060408160051b87010192506020870160005b828110156111fe57603f198886030184526111ec858351611129565b945092850192908501906001016111d0565b5092979650505050505050565b60008060006060848603121561122057600080fd5b833567ffffffffffffffff81111561123757600080fd5b61124386828701610f5e565b9660208601359650604090950135949350505050565b60006020828403121561126b57600080fd5b813567ffffffffffffffff81111561128257600080fd5b61128e84828501610f5e565b949350505050565b6000602082840312156112a857600080fd5b5035919050565b602081526000610ef16020830184611129565b600082516112d48184602087016110d9565b9190910192915050565b600181811c908216806112f257607f821691505b60208210810361131257634e487b7160e01b600052602260045260246000fd5b50919050565b601f821115611364576000816000526020600020601f850160051c810160208610156113415750805b601f850160051c820191505b818110156113605782815560010161134d565b5050505b505050565b815167ffffffffffffffff81111561138357611383610f48565b6113978161139184546112de565b84611318565b602080601f8311600181146113cc57600084156113b45750858301515b600019600386901b1c1916600185901b178555611360565b600085815260208120601f198616915b828110156113fb578886015182559484019460019091019084016113dc565b50858210156114195787850151600019600388901b60f8161c191681555b5050505050600190811b01905550565b634e487b7160e01b600052603260045260246000fd5b634e487b7160e01b600052601160045260246000fd5b6000600182016114675761146761143f565b5060010190565b80820180821115610ef457610ef461143f565b60008261149e57634e487b7160e01b600052601260045260246000fd5b50049056fea26469706673582212203cdfb1fdcfebd92302820776afaaa02f057169f9984ac67f81113620d870b78b64736f6c63430008180033",
  "linkReferences": {},
  "deployedLinkReferences": {}
}